:020000040800F2
:10000000002000206D070008DD060008DF0600085C
:1000100000000000000000000000000000000000E0
:10002000000000000000000000000000E1060008E1
:100030000000000000000000E3060008E5060008DC
:10004000BD07000800000000BD070008BD0700084C
:10005000BD070008BD070008BD070008BD07000870
:1000600000000000BD070008BD070008BD0700082C
:10007000BD070008BD070008BD070008000000001C
:10008000BD0700080000000000000000ED060008A9
:1000900000000000BD070008BD070008BD070008FC
:1000A000BD070008BD070008BD070008BD07000820
:0800B000BD070008000000007C
:1000B80010B5064C2378002B07D1054B002B02D036
:1000C800044800E000BF0123237010BD5800002041
:1000D80000000000E4130008044B10B5002B03D007
:1000E8000349044800E000BF10BDC04600000000FE
:1000F8005C000020E413000802B471464908490076
:10010800095C49008E4402BC7047C046002243087F
:100118008B4274D303098B425FD3030A8B4244D3C7
:10012800030B8B4228D3030C8B420DD3FF22090209
:1001380012BA030C8B4202D31212090265D0030BC8
:100148008B4219D300E0090AC30B8B4201D3CB03BE
:10015800C01A5241830B8B4201D38B03C01A524100
:10016800430B8B4201D34B03C01A5241030B8B4202
:1001780001D30B03C01A5241C30A8B4201D3CB02ED
:10018800C01A5241830A8B4201D38B02C01A5241D2
:10019800430A8B4201D34B02C01A5241030A8B42D5
:1001A80001D30B02C01A5241CDD2C3098B4201D3ED
:1001B800CB01C01A524183098B4201D38B01C01A6B
:1001C800524143098B4201D34B01C01A52410309E2
:1001D8008B4201D30B01C01A5241C3088B4201D391
:1001E800CB00C01A524183088B4201D38B00C01A3E
:1001F800524143088B4201D34B00C01A5241411A65
:1002080000D20146524110467047FFE701B5002071
:1002180000F006F802BDC0460029F7D076E770471F
:100228007047C0467FB51022002102A801F0CEF821
:100238004023034801A9019300F05CFB07B000BD0F
:100248000004005007B50120094B596B014359635D
:1002580002215A6B02400092009A5A6B0A435A6371
:100268005B6B0B400193019BFFF7DCFF07BDC046AA
:100278000010024030B5A02587B0ED0514220021FA
:1002880001A801F0A3F800222800FF2100F0E6FBF6
:10029800FF2300242800019301A9FE3B0293039445
:1002A800049400F027FB9F2328001B0201A9019357
:1002B8000294039400F01EFB7023044801A90193E3
:1002C8000294039400F016FB07B030BD0004005000
:1002D800F0B5A02787B0174C174DFF051422002151
:1002E80001A801F073F821003800002200F0B6FBE5
:1002F80000222800302100F0B1FB012601940024DF
:10030800380001A902960394049400F0F3FA4F23ED
:10031800280001A901930294039400F0EBFA30231A
:10032800280001A9019302960394049400F0E2FACC
:1003380007B0F0BDFF9F000000040050F8B5194E4B
:10034800A0203478012163425C41E4B22200A02756
:10035800C00500F083FB0025FF05134B0022595D03
:100368003800013500F07AFB072DF6D132780F4BB3
:10037800002A00D00E4BA0200121C0051F780025BF
:1003880000F06CFB0B4BA020DA5D4023AA401A401A
:10039800054BC005595D013500F060FB072DF1D113
:1003A8003470F8BD1B0000200400002076000020F7
:1003B800750000200B00002070B501780400457816
:1003C8000D4800F045FB002808D1002D08D0012376
:1003D8006070237200F038FA606070BD002DFCD1A7
:1003E80000F032FA6368C01AA3235B009842F4D382
:1003F800463BFF3B6370F0E700040050013800B54E
:1004080007280DD8FFF778FE040D0C140C0C0C16F9
:10041800094A137800210F2B01D00133D9B211708A
:1004280000BD054A13780F21002BF8D0013BF5E7F2
:10043800024AEEE7014AF5E7760000207500002041
:10044800F8B50124A02522008021234EED0533783C
:100458002800A1409A4300F001FB33782200E340D2
:10046800802128009A43890000F0F8FA22008021B0
:10047800337828009B089A43C90000F0EFFA22005D
:10048800802133782800DB089A43090100F0E6FA56
:1004980022008021114E2800337849019A4300F048
:1004A800DDFA33782200E3400D4F9A4338001021DB
:1004B80000F0D4FA2200337838009B089A432021B0
:1004C80000F0CCFA2200802133782800DB089A4318
:1004D800090200F0C3FAF8BD76000020750000207C
:1004E80000040050F8B500240C26144D2B689C42DB
:1004F8000AD30024012723002A6894420DD3002B35
:1005080001D0FFF79DFFF8BD330063430C48013469
:10051800C018FFF751FFE4B2E7E70C216143084A2E
:100528005618307A002805D0885CFFF767FF00234B
:1005380033723B000134E4B2DEE7C046000000201D
:100548001C000020920002430F20DB001A434900E0
:100558000A43904370470000F8B5A0248021E405C1
:100568002000490000F074FA80210500890020006D
:1005780000F06EFA80210600C900200000F068FA39
:10058800802107000901200000F062FA3A00030008
:1005980031002800FFF7D6FF8021104B4901187061
:1005A800200000F055FA0E4F05001021380000F029
:1005B8004FFA20210600380000F04AFA802107008F
:1005C8000902200000F044FA3A0003003100280034
:1005D800FFF7B8FF034B1870F8BDC046760000203F
:1005E800000400507500002000B593B034220021AB
:1005F80005A800F0EBFE0021102201A800F0E6FE9D
:100608008020800000F030FA02230593FE33402258
:100618000893002305A809930A920C9300F050FA56
:10062800011E01D072B6FEE70723029003900490E2
:1006380001A8019300F0A4FC002801D072B6FEE7DF
:1006480013B000BD10B500F0DFF8FFF7CDFFFFF7DE
:10065800F9FD00F053F840210E4800F0F9F90E4C6E
:10066800207000280FD1FFF733FE2378002B01D12B
:10067800FFF7E6FE094800F031FD2378002B05D18D
:10068800FFF730FFF9E7FFF7F5FDEEE7FFF764FF47
:10069800F3E7C046000400507400002078000020F2
:1006A80072B6FEE701200A4B82B0196C0143196447
:1006B80080211A6C490502400092009ADA6B0A43BD
:1006C800DA63DB6B0B400193019B02B07047C046B5
:1006D80000100240FEE7FEE77047704710B500F0D3
:1006E800A7F810BD10B5FFF729FE024800F028FD55
:1006F80010BDC04678000020704700000848094B2C
:1007080010B503600023084A43608360C260036138
:10071800836100F009FE002801D0FFF7C1FF10BD7A
:100728007800002000200040FFFF000007B50B4BB9
:1007380002689A4211D18020094A0002116C0143D3
:100748001164136C00220340019313201100019BD4
:1007580000F080F8132000F0A7F807BD0020004043
:10076800001002400D488546FFF7C6FF0C480D49AA
:100778000D4A002302E0D458C4500433C4188C42F4
:10078800F9D30A4A0A4C002301E013600432A2425A
:10079800FBD300F0F7FDFFF755FFFEE70020002030
:1007A80000000020580000204414000858000020D1
:1007B800C8000020FEE7000070B5104B050019784E
:1007C800002901D1012070BDFA208000FFF79EFCAE
:1007D8000B4B01001868FFF799FC00F071F8041E34
:1007E800F0D1032DEED8020001202900404200F08C
:1007F80031F8044B20001D60E5E7C046500000209A
:100808004C000020540000208023084A5B00116837
:1008180010B50B4303201360FFF7CEFF041E03D16E
:10082800FFF740FF200010BD0124FBE70020024035
:10083800034A044B11681B785B1813607047C04665
:10084800C400002050000020014B18687047C046C3
:10085800C400002030B5FF2503242A000440E4002A
:10086800A24089012940D243A140C3B200280ADB33
:10087800C0240B4B80088000C018A40003591A40FC
:100888001143015130BD0F200340083B05489B0828
:100898009B001B18D86902401143D961F2E7C04692
:1008A80000E100E000ED00E0002805DB1F23184010
:1008B8001E3B8340014A13607047C04600E100E0D8
:1008C8008022431E5204012093420DD2C021074AC0
:1008D80007485360036A09061B021B0A0B4303629D
:1008E80000200723906013607047C04610E000E0C6
:1008F80000ED00E00023F0B585B00A681400DC4084
:1009080001D105B0F0BD012514009D402C40019493
:100918002A4200D18EE04A685E009446032264466B
:1009280022400324B440E4430294541E012C2AD8E4
:100938008768029C2740CC68B4403C438460446884
:100948000127AC432500644624093C409C402C43C5
:100958004460C568029C25408C68B4402C43C46040
:10096800022A12D1DC080725A4000419276A039477
:100978000F241D40AD00AC40A7430C69AC40274391
:10098800039C276201E0032AE3D10468029DB24078
:1009980025402C0014430460C0246246A40222426D
:1009A80048D0254A03259C08A400A4180F221D40FE
:1009B800ED00AA40A027266EFF0596430022B84204
:1009C8000CD01E4F0132B84208D01D4F0132B84238
:1009D80004D01C4F0132B84200D00232AA40674608
:1009E80032432266144C019A2668019DD24335434E
:1009F800FF0201D435001540674625606668019DF1
:100A08003543BF0201D435001540674665600E4C7A
:100A1800019DE66F3543BF0301D435001540674695
:100A2800E5670A4C019EE56F2E43FF0301D415408C
:100A38002E00E667013360E700180240000400500A
:100A480000080050000C005008180240041802402A
:100A580000690840431E9841C0B27047002A01D07F
:100A6800816170478162FCE710B5114C1149236818
:100A780002000B4003432360802300209B009A421E
:100A88000ED10D4B0D49186806235843FFF73EFB5E
:100A98008022431CD200616908001040114200D135
:100AA80010BD002B01D0013BF5E70320F8E7C04655
:100AB80000700040FFF9FFFF4C00002040420F008B
:100AC800F0B5040085B0002823D00368DB0710D4F4
:100AD80023689B075ED423681B0700D5C3E02368FF
:100AE8005B0700D5F4E0E369002B00D07AE1002031
:100AF80029E03822AF4DAB681340EA68102B0AD1C1
:100B0800D243930709D12B689B03E1D56368002B77
:100B1800DED1012017E0082BF5D08022636852024D
:100B2800934212D12A6813432B60FFF78DFE80276A
:100B38000600BF022B683B42CAD1FFF785FE801B27
:100B48006428F7D9032005B0F0BDA021C9028B4263
:100B580008D180232968DB020B432B602B681A43DA
:100B68002A60E2E72A6894490A402A602A68934979
:100B78000A402A60002BD8D1FFF766FE80270600BE
:100B8800BF022B683B42A3D0FFF75EFE801B6428A0
:100B9800F7D9D7E73823874DAA681340EA68102B9E
:100BA80028D103210A40022A26D12A68520502D5F3
:100BB800E268002AADD06968626981481202014082
:100BC8000A436A60002B0DD12B687E4A13402269C4
:100BD80013432B602B687C4A9B045B0FDA4013009D
:100BE8007A4A13607A4B1868FFF7E6FD002800D1AF
:100BF80071E78EE7002BD8D0E368002B20D02B6854
:100C0800704A802713402269FF0013432B6080231A
:100C18002A685B0013432B60FFF716FE06002B685B
:100C28003B4207D06A68636965491B020A4013435F
:100C38006B6050E7FFF708FE801B0228EFD981E7B9
:100C48002B68644A802713402B60FFF7FDFD0600E0
:100C5800FF002B683B4200D13DE7FFF7F5FD801B05
:100C68000228F6D96EE73822524DAB681340182B8C
:100C780008D12B6E9B0700D431E7A369002B00D065
:100C88002DE746E7A2690123002A10D02A6E022721
:100C980013432B66FFF7D8FD06002B6E3B4200D0AE
:100CA8001DE7FFF7D1FD801B0228F6D94AE72A6E17
:100CB80002279A432A66FFF7C7FD06002B6E3B42C0
:100CC80000D10CE7FFF7C0FD801B0228F6D939E7F1
:100CD8003822384DAB681340202B08D1EB6D9B07A9
:100CE80000D400E7A368002B00D0FCE611E78022BF
:100CF8000021EB6B52050091134208D1EB6B1343B3
:100D0800EB63EB6B13400393039B01230093802752
:100D1800314E7F0033683B4215D0A368012B22D1A6
:100D2800EA6D1343EB65FFF78FFD02270600EB6DB5
:100D38003B4238D0009B012B00D0D4E6EB6B274A0E
:100D48001340EB63CFE633683B433360FFF77CFD2A
:100D5800019033683B42E0D1FFF776FD019BC01A52
:100D68000228F6D9EEE6EA6D052B05D1013B1343BF
:100D7800EB65EA6D0123D4E701218A43EA65EA6D50
:100D880003318A43EA65002BCDD1FFF75DFD0227C9
:100D98000600EB6D3B42CDD0FFF756FD104B801B94
:100DA8009842F6D9CEE6FFF74FFD0D4B801B9842CF
:100DB800BDD9C7E600100240FFFFFEFFFFFFFBFFA3
:100DC800FF80FFFFFFC7FFFF0024F4004C00002056
:100DD80054000020FFFEFFFF00700040FFFFFFEF00
:100DE8008813000038213F4DAA680A40102A53D0C2
:100DF8003D4A022B38D12B68802713402B60FFF720
:100E080023FD0600BF042B683B4227D1616A236A91
:100E1800EA680B43354980260A401343E26AB60460
:100E28001343226B1343A26A12021343EB6080231D
:100E38002A685B0413432B608023EA685B0513432D
:100E4800EB60FFF701FD04002B68334200D04EE64B
:100E5800FFF7FAFC001B0228F6D973E6FFF7F4FC4B
:100E6800801B0228CFD96DE62B68802613402B60A3
:100E7800FFF7EAFC0400B6042B6818003040334240
:100E880004D1EB681A4A1340EB605CE6FFF7DCFC20
:100E9800001B0228F0D955E6012B00D139E60322C0
:100EA800EB68216A1A408A4200D032E67022616AF1
:100EB8001A408A4200D02CE6FE21A26AC9011940D4
:100EC8001202914200D024E6F822E16A92031A4005
:100ED8008A4200D01DE6226B5B0F5B07934200D16C
:100EE80005E616E600100240FFFFFFFE8C80C11FDA
:100EF800FCFFFEEF382370B51E4CA2681A4205D1DC
:100F080023681D489B045B0FD84070BDA2681A4037
:100F1800082A2AD0A2681A40102A1AD1E368E16880
:100F2800DB434906490F7F2501319B070CD1E36854
:100F380012481B0A1D40FFF7E9F8E1686843490FAA
:100F48000131FFF7E3F8E0E7E3680B481B0A1D40AF
:100F5800F1E7A2681A40202A09D0A26800201340AD
:100F6800182BD2D1FA20C001CFE70448CDE7802062
:100F78000002CAE7001002400024F40000127A00C0
:100F8800F7B504000D00002801D10120FEBD072798
:100F98004A4E33683B408B422AD321688B073BD4A7
:100FA800CB0748D4072733683B40AB420AD933689C
:100FB800BB432B433360FFF747FC019033683B404A
:100FC800AB426BD123683E4D5B076FD4FFF792FFAE
:100FD800AB683C4A1B051B0F9B009B581F22134004
:100FE800D840394B1860394B1868FFF7E5FBCDE757
:100FF8003368BB430B433360FFF726FC019033682B
:101008003B40AB42C9D0FFF71FFC019BC01A304BD5
:101018009842F4D90320B9E7294A4B0704D5E023BD
:101028009068DB010343936093682A480340A068F3
:1010380003439360B4E76268214F012A19D13B68E2
:101048009B03A2D50721BB688B431343BB60FFF703
:10105800FBFB01903823BA681A406368DB009A42A8
:10106800A0D0FFF7F1FB019BC01A194B9842F1D9A8
:10107800D0E7022A03D13B689B01E3D485E7002A25
:1010880003D13B685B05DDD47FE70223032A03D144
:10109800396E1942D6D178E7F96DFAE7FFF7D4FB34
:1010A800019BC01A0A4B984288D9B3E7AB680A4A31
:1010B8001340E2681343AB6088E7C0460020024053
:1010C80000100240FC1300084C00002054000020CF
:1010D80088130000FFF0FFFFFF8FFFFF02000300EF
:1010E80001203D321178814218D1022111701B680C
:1010F800DA680243DA600C4A934202D00B4A934200
:101108000DD19A680A4900200A40062A06D00739F4
:101118008A4203D0012219680A431A6070471A6884
:10112800104318600020F9E7002C0140000400403B
:10113800070001007047704770477047704700000C
:101148000222036810B51969040011420ED0D9684B
:1011580011420BD0053A1A61043202779B699B074A
:1011680000D186E0FFF7E8FF0023237704222368F5
:101178001969114211D0D96811420ED0093A1A6181
:10118800073222779A69C0239B0020001A4200D1B7
:1011980075E0FFF7D1FF0023237708222368196938
:1011A80011420ED0D96811420BD0113A1A610D3292
:1011B8002277DB6920009B0767D0FFF7BDFF00237C
:1011C8002377102223681969114210D0D968114277
:1011D8000DD0213A1A6119322277DA69C0239B00AF
:1011E80020001A4257D0FFF7A7FF002323770122D8
:1011F80023681969114207D0D968114204D0033A0B
:1012080020001A61FFF796FF8022236819691142AE
:1012180008D0D968114205D0023AFF3A20001A6175
:1012280000F0ADF823681A69D20507D5DA68120606
:1012380004D51C4A20001A6100F0A2F84022236855
:101248001969114207D0D968114204D0813A2000A7
:101258001A61FFF773FF202223681969114207D02A
:10126800D968114204D0413A20001A6100F086F88A
:1012780010BDFFF760FF2000FFF75FFF74E7FFF77F
:101288005AFF2000FFF759FF85E7FFF754FF2000BA
:10129800FFF753FF93E7FFF74EFF2000FFF74DFFDF
:1012A800A3E7C046FFFEFFFF194A10B50368904246
:1012B80002D0184CA04208D17024A3434C682343A1
:1012C80090420BD0134CA04208D0134CA04205D03A
:1012D800124CA04202D0124CA04203D1114C234020
:1012E800CC6823438024A3434C69234303608B6861
:1012F800C3620B688362904205D0084B984202D0C3
:10130800074B984201D10B6903630123436110BD68
:10131800002C01400004004000200040004401402F
:1013280000480140FFFCFFFF70B504000120002CBD
:1013380023D025003D352B78DAB2002B05D12300C8
:101348003C3320001A70FFF7F1F902232B70206854
:10135800211DFFF7A9FF2200012300204832137046
:1013680047340A3A137053709370D37013715371E2
:101378009371D371137223702B7070BD70477047CF
:101388007047000070B500260C4D0D4C641BA4106E
:10139800A64209D1002600F021F80A4D0A4C641B28
:1013A800A410A64205D170BDB300EB58984701368A
:1013B800EEE7B300EB5898470136F2E73C14000813
:1013C8003C1400083C14000840140008030082186C
:1013D800934200D1704719700133F9E7F8B5C04658
:1013E800F8BC08BC9E467047F8B5C046F8BC08BCB7
:0413F8009E46704756
:1013FC0000000000000000000000000000000000E1
:10140C0000000000000000000000000000000000D0
:10141C0001000000020000000300000004000000B6
:10142C000600000007000000080000000900000092
:04143C00E1000008C3
:04144000B9000008E7
:1014440004000000020408102040807E306D7933CF
:101454005B5F707F73771F4E3D4F470104010000AF
:10146400000000000000000008010000000000006F
:101474000000000001010000000000000000000066
:101484000201000000000000000000000024F4003D
:0814940001000000040000004B
:040000050800076D7B
:00000001FF
