:020000040800F2
:10000000002000205D0B0008CD0A0008CF0A000880
:1000100000000000000000000000000000000000E0
:10002000000000000000000000000000D10A0008ED
:100030000000000000000000D30A0008D50A0008F4
:10004000AD0B000800000000AD0B0008AD0B000870
:10005000AD0B0008AD0B0008AD0B0008AD0B0008A0
:1000600000000000AD0B0008AD0B0008AD0B000850
:10007000AD0B0008AD0B0008AD0B00080000000040
:10008000AD0B00080000000000000000DD0A0008C1
:1000900000000000AD0B0008AD0B0008AD0B000820
:1000A000AD0B0008AD0B0008AD0B0008AD0B000850
:0800B000AD0B00080000000088
:1000B80010B5064C2378002B07D1054B002B02D036
:1000C800044800E000BF0123237010BD8800002011
:1000D80000000000D4170008044B10B5002B03D013
:1000E8000349044800E000BF10BDC04600000000FE
:1000F8008C000020D4170008002243088B4274D3D8
:1001080003098B425FD3030A8B4244D3030B8B4210
:1001180028D3030C8B420DD3FF22090212BA030C19
:100128008B4202D31212090265D0030B8B4219D3FA
:1001380000E0090AC30B8B4201D3CB03C01A52411A
:10014800830B8B4201D38B03C01A5241430B8B4262
:1001580001D34B03C01A5241030B8B4201D30B034B
:10016800C01A5241C30A8B4201D3CB02C01A524172
:10017800830A8B4201D38B02C01A5241430A8B4235
:1001880001D34B02C01A5241030A8B4201D30B021E
:10019800C01A5241CDD2C3098B4201D3CB01C01A38
:1001A800524183098B4201D38B01C01A5241430942
:1001B8008B4201D34B01C01A524103098B4201D330
:1001C8000B01C01A5241C3088B4201D3CB00C01A9D
:1001D800524183088B4201D38B00C01A5241430815
:1001E8008B4201D34B00C01A5241411A00D201463A
:1001F800524110467047FFE701B5002000F006F8AD
:1002080002BDC0460029F7D076E770477047C04660
:100218007FB51022002102A801F0D0FA044B01A9F1
:100228009A881868019200F05DFD07B000BDC046CD
:1002380000000020F0B5A02687B01422002101A8F4
:1002480001F0BCFA444C454FA188BB88F605194318
:10025800434B30009B8800221943424B424D9B88F8
:100268001943424B9B881943414B9B881943414B87
:100278009B881943404B9B88194300F0E7FD3F4B8F
:1002880028009988002200F0E1FDBA88A388012798
:1002980000241343324A3000928801A91343314A9B
:1002A80092881343314A92881343314A9288134300
:1002B800304A92881343304A928802971343019335
:1002C8000394049400F00EFD2D4B2E4A9B889288CF
:1002D800300013432C4A01A9928813432B4A928871
:1002E80013432B4A928813432A4A92880294134351
:1002F8000193039400F0F6FC204B28009B8801A989
:10030800019302970394049400F0ECFC224B234AD7
:100318009B88928828001343214A01A99288134395
:10032800204A92881343204A928813431F4A92888E
:1003380013431F4A928813431E4A928813431E4A46
:10034800928813431D4A928802941343019303949D
:1003580000F0C8FC07B0F0BDAC000020540100203C
:100368005C01002064010020000400506C010020A2
:10037800740100207C010020840100201401002069
:10038800240100202C010020340100203C01002021
:10039800EC00002004010020F4000020FC000020F4
:1003A800A4000020CC000020D4000020DC000020A5
:1003B800E4000020B4000020BC000020C40000209D
:1003C800324A30B51300324911CB11C1314911CB32
:1003D80011C1314911CB11C1304911CB11C130497B
:1003E80011CB11C12F4911CB11C12F4911CB11C10B
:1003F8002E4911CB11C12E49097800290CD12D4A5B
:1004080003CB03C22C4A03CB03C22C4A03CB03C23F
:100418002B4A03CB03C230BD11002A48603130C9D2
:1004280030C011002848683130C930C01100274851
:10043800703130C930C02649783211CA11C12549F6
:10044800254A11CA11C1254911CA11C1244911CA25
:1004580011C1244911CA11C1234911CA11C1234923
:1004680011CA11C1224911CA11C1224911CA11C1A7
:10047800214911CA11C1214911CA11C1204911CA02
:1004880011C1204911CA11C11F4AC2E7EC1700085F
:10049800AC000020540100205C0100206401002011
:1004A8006C010020740100207C01002084010020E0
:1004B8008C0100204C010020440100201C01002078
:1004C8000C010020240100202C0100203401002010
:1004D8003C010020EC0000206C180008F40000200B
:1004E800FC00002004010020A4000020B40000202B
:1004F800BC000020C4000020CC000020D400002054
:10050800DC000020E40000201401002010B5044B9A
:100518009988186800F094FC024B187010BDC0460A
:10052800A40000208D010020F7B5584B584E1B78C9
:10053800584C002B05D0012B3FD1574B1B78012B72
:100548003BD1337820685A425341DBB201931A00F9
:10055800A18800F07BFC514D2F001C3708CD0022EC
:100568009988186800F072FCAF42F7D132784C4B8A
:10057800002A00D04B4BA18820681D78002400F089
:1005880065FC4027454AA300D358474A9988525DDD
:100598001868A24001343A4000F058FC072CF1D109
:1005A8003A4B1B78012B05D1404B002299881868DB
:1005B80000F04CFC019B3370F7BD012535702A0013
:1005C800A188206800F042FC394B1C689E88394B92
:1005D8009988186800F034FC31000200200000F00F
:1005E80035FC354B1C689E88344B9988186800F098
:1005F80027FC31000200200000F028FC304B1C686A
:100608009E88304B9988186800F01AFC3100020067
:10061800200000F01BFC2C4B1C689E882B4B9988F3
:10062800186800F00DFC31000200200000F00EFCFC
:10063800274B1C689E88274B9988186800F000FC97
:1006480031000200200000F001FC234B1C689E884A
:10065800224B9988186800F0F3FB31000200200053
:1006680000F0F4FB1E4B1C689E881E4B9988186886
:1006780000F0E6FB31000200200000F0E7FB0B4B26
:100688002A009988186800F0E1FB95E78C010020A2
:1006980038000020AC0000208D0100200C00002054
:1006A8008F0100208E010020280000201401002066
:1006B80054010020B40000205C010020BC00002090
:1006C80064010020C40000206C010020CC00002040
:1006D80074010020D40000207C010020DC000020F0
:1006E80084010020E400002010B503680400998804
:1006F800186800F0A5FB002811D12379002B08D138
:1007080000F09AFAA368C01A8A235B0098420AD2BA
:1007180010BD01232071237300F08EFAA0602379A5
:10072800002BF5D1ECE701232371F1E7224B026896
:1007380019688A420BD182889B889A4207D11F4A3E
:10074800002113780F2B01D00133D9B211701C4B43
:10075800026819688A420BD182889B889A4207D11D
:10076800164A0F211378002B01D0013BD9B2117022
:10077800144B026819688A420BD182889B889A4276
:1007880007D1114A002113780F2B01D00133D9B2B8
:1007980011700E4B026819688A420BD182889B88B7
:1007A8009A4207D1084A0F211378002B01D0013B48
:1007B800D9B211707047C0464C0100208F0100204B
:1007C800440100201C0100208E0100200C010020A3
:1007D80070B501242200244D2B789A43234B998825
:1007E800186800F033FB2B782200E3409A43204B33
:1007F8009988186800F02AFB22002B789B089A43F6
:100808001C4B9988186800F021FB22002B78DB0824
:100818009A43194B9988186800F018FB2200174D65
:100828002B789A43164B9988186800F00FFB2B78A1
:100838002200E3409A43134B9988186800F006FB9E
:1008480022002B789B089A430F4B9988186800F070
:10085800FDFA22002B78DB089A430C4B998818681C
:1008680000F0F4FA70BDC0468F010020240100207A
:100878002C010020340100203C0100208E010020C2
:10088800EC000020F4000020FC00002004010020FF
:10089800F8B50024124D2B689C420AD30024012786
:1008A80023002A6894420CD3002B01D0FFF790FF55
:1008B800F8BD0C482301C0180134FFF715FFE4B256
:1008C800E8E7084A21015618307B002805D08858E7
:1008D800FFF72CFF002333733B000134E4B2E0E759
:1008E800080000203C000020920002430F20DB009B
:1008F8001A4349000A4390437047000070B51F4BE4
:100908009988186800F09CFA1D4B040099881868AB
:1009180000F096FA1B4B05009988186800F090FAC9
:10092800194B06009988186800F08AFA320003000B
:1009380029002000FFF7D8FF144B1870144B998832
:10094800186800F07DFA134B04009988186800F0C5
:1009580077FA114B05009988186800F071FA0F4B67
:1009680006009988186800F06BFA32000300290025
:100978002000FFF7B9FF0A4B187070BD2401002052
:100988002C010020340100203C0100208F010020B0
:10099800EC000020F4000020FC00002004010020EE
:1009A8008E01002000B593B03422002105A800F084
:1009B80005FF0021102201A800F000FF8020800020
:1009C80000F04AFA02230593FE33402208930023DD
:1009D80005A809930A920C9300F06AFA011E01D047
:1009E80072B6FEE7072302900390049001A80193D2
:1009F80000F0BEFC002801D072B6FEE713B000BDBF
:100A080013B500F0F9F8FFF7CDFF00F06FF80120FB
:100A18001A4B596B0143596302215A6B02400092E9
:100A2800009A5A6B0A435A635B6B0B400193019B14
:100A3800FFF7EEFB124B9988186800F001FA114C89
:100A48002070FFF7BDFC2378002B0AD1FFF7C0FE0A
:100A58000D4800F03BFD2378002B05D1FFF718FF68
:100A6800F9E7FFF7E7FBF3E7FFF750FD074B1B78C4
:100A7800012BF0D1FFF742FFEDE7C046001002401E
:100A8800000000208C010020900100208D01002032
:100A980072B6FEE701200A4B82B0196C0143196453
:100AA80080211A6C490502400092009ADA6B0A43C9
:100AB800DA63DB6B0B400193019B02B07047C046C1
:100AC80000100240FEE7FEE77047704710B500F0DF
:100AD800A7F810BD10B5FFF727FD024800F028FD64
:100AE80010BDC04690010020704700000848094B1F
:100AF80010B503600023084A43608360C260036145
:100B0800836100F009FE002801D0FFF7C1FF10BD86
:100B18009001002000200040FFFF000007B50B4BAC
:100B280002689A4211D18020094A0002116C0143DF
:100B38001164136C00220340019313201100019BE0
:100B480000F080F8132000F0A7F807BD002000404F
:100B5800001002400D488546FFF7C6FF0C480D49B6
:100B68000D4A002302E0D458C4500433C4188C4200
:100B7800F9D30A4A0A4C002301E013600432A24266
:100B8800FBD300F0F7FDFFF73BFFFEE70020002056
:100B980000000020880000201419000888000020A8
:100BA800E0010020FEE7000070B5104B0500197841
:100BB800002901D1012070BDFA208000FFF79CFABE
:100BC8000B4B01001868FFF797FA00F071F8041E44
:100BD800F0D1032DEED8020001202900404200F098
:100BE80031F8044B20001D60E5E7C0468000002076
:100BF8007C000020840000208023084A5B001168E4
:100C080010B50B4303201360FFF7CEFF041E03D17A
:100C1800FFF740FF200010BD0124FBE70020024041
:100C2800034A044B11681B785B1813607047C04671
:100C3800DC01002080000020014B18687047C04686
:100C4800DC01002030B5FF2503242A000440E4001D
:100C5800A24089012940D243A140C3B200280ADB3F
:100C6800C0240B4B80088000C018A40003591A4008
:100C78001143015130BD0F200340083B05489B0834
:100C88009B001B18D86902401143D961F2E7C0469E
:100C980000E100E000ED00E0002805DB1F2318401C
:100CA8001E3B8340014A13607047C04600E100E0E4
:100CB8008022431E5204012093420DD2C021074ACC
:100CC80007485360036A09061B021B0A0B430362A9
:100CD80000200723906013607047C04610E000E0D2
:100CE80000ED00E00023F0B585B00A681400DC4090
:100CF80001D105B0F0BD012514009D402C400194A0
:100D08002A4200D18EE04A685E0094460322644677
:100D180022400324B440E4430294541E012C2AD8F0
:100D28008768029C2740CC68B4403C438460446890
:100D38000127AC432500644624093C409C402C43D1
:100D48004460C568029C25408C68B4402C43C4604C
:100D5800022A12D1DC080725A4000419276A039483
:100D68000F241D40AD00AC40A7430C69AC4027439D
:100D7800039C276201E0032AE3D10468029DB24084
:100D880025402C0014430460C0246246A402224279
:100D980048D0254A03259C08A400A4180F221D400A
:100DA800ED00AA40A027266EFF0596430022B84210
:100DB8000CD01E4F0132B84208D01D4F0132B84244
:100DC80004D01C4F0132B84200D00232AA40674614
:100DD80032432266144C019A2668019DD24335435A
:100DE800FF0201D435001540674625606668019DFD
:100DF8003543BF0201D435001540674665600E4C87
:100E0800019DE66F3543BF0301D4350015406746A1
:100E1800E5670A4C019EE56F2E43FF0301D4154098
:100E28002E00E667013360E7001802400004005016
:100E380000080050000C0050081802400418024036
:100E480000690840431E9841C0B27047002A01D08B
:100E5800816170478162FCE710B5114C1149236824
:100E680002000B4003432360802300209B009A422A
:100E78000ED10D4B0D49186806235843FFF73CF96E
:100E88008022431CD200616908001040114200D141
:100E980010BD002B01D0013BF5E70320F8E7C04661
:100EA80000700040FFF9FFFF7C00002040420F0067
:100EB800F0B5040085B0002823D00368DB0710D400
:100EC80023689B075ED423681B0700D5C3E023680B
:100ED8005B0700D5F4E0E369002B00D07AE100203D
:100EE80029E03822AF4DAB681340EA68102B0AD1CD
:100EF800D243930709D12B689B03E1D56368002B84
:100F0800DED1012017E0082BF5D080226368520259
:100F1800934212D12A6813432B60FFF78DFE802776
:100F28000600BF022B683B42CAD1FFF785FE801B33
:100F38006428F7D9032005B0F0BDA021C9028B426F
:100F480008D180232968DB020B432B602B681A43E6
:100F58002A60E2E72A6894490A402A602A68934985
:100F68000A402A60002BD8D1FFF766FE80270600CA
:100F7800BF022B683B42A3D0FFF75EFE801B6428AC
:100F8800F7D9D7E73823874DAA681340EA68102BAA
:100F980028D103210A40022A26D12A68520502D5FF
:100FA800E268002AADD0696862698148120201408E
:100FB8000A436A60002B0DD12B687E4A13402269D0
:100FC80013432B602B687C4A9B045B0FDA401300A9
:100FD8007A4A13607A4B1868FFF7E6FD002800D1BB
:100FE80071E78EE7002BD8D0E368002B20D02B6860
:100FF800704A802713402269FF0013432B60802327
:101008002A685B0013432B60FFF716FE06002B6867
:101018003B4207D06A68636965491B020A4013436B
:101028006B6050E7FFF708FE801B0228EFD981E7C5
:101038002B68644A802713402B60FFF7FDFD0600EC
:10104800FF002B683B4200D13DE7FFF7F5FD801B11
:101058000228F6D96EE73822524DAB681340182B98
:1010680008D12B6E9B0700D431E7A369002B00D071
:101078002DE746E7A2690123002A10D02A6E02272D
:1010880013432B66FFF7D8FD06002B6E3B4200D0BA
:101098001DE7FFF7D1FD801B0228F6D94AE72A6E23
:1010A80002279A432A66FFF7C7FD06002B6E3B42CC
:1010B80000D10CE7FFF7C0FD801B0228F6D939E7FD
:1010C8003822384DAB681340202B08D1EB6D9B07B5
:1010D80000D400E7A368002B00D0FCE611E78022CB
:1010E8000021EB6B52050091134208D1EB6B1343BF
:1010F800EB63EB6B13400393039B0123009380275F
:10110800314E7F0033683B4215D0A368012B22D1B2
:10111800EA6D1343EB65FFF78FFD02270600EB6DC1
:101128003B4238D0009B012B00D0D4E6EB6B274A1A
:101138001340EB63CFE633683B433360FFF77CFD36
:10114800019033683B42E0D1FFF776FD019BC01A5E
:101158000228F6D9EEE6EA6D052B05D1013B1343CB
:10116800EB65EA6D0123D4E701218A43EA65EA6D5C
:1011780003318A43EA65002BCDD1FFF75DFD0227D5
:101188000600EB6D3B42CDD0FFF756FD104B801BA0
:101198009842F6D9CEE6FFF74FFD0D4B801B9842DB
:1011A800BDD9C7E600100240FFFFFEFFFFFFFBFFAF
:1011B800FF80FFFFFFC7FFFF0024F4007C00002032
:1011C80084000020FFFEFFFF00700040FFFFFFEFDC
:1011D8008813000038213F4DAA680A40102A53D0CE
:1011E8003D4A022B38D12B68802713402B60FFF72C
:1011F80023FD0600BF042B683B4227D1616A236A9E
:10120800EA680B43354980260A401343E26AB6046C
:101218001343226B1343A26A12021343EB60802329
:101228002A685B0413432B608023EA685B05134339
:10123800EB60FFF701FD04002B68334200D04EE657
:10124800FFF7FAFC001B0228F6D973E6FFF7F4FC57
:10125800801B0228CFD96DE62B68802613402B60AF
:10126800FFF7EAFC0400B6042B681800304033424C
:1012780004D1EB681A4A1340EB605CE6FFF7DCFC2C
:10128800001B0228F0D955E6012B00D139E60322CC
:10129800EB68216A1A408A4200D032E67022616AFD
:1012A8001A408A4200D02CE6FE21A26AC9011940E0
:1012B8001202914200D024E6F822E16A92031A4011
:1012C8008A4200D01DE6226B5B0F5B07934200D178
:1012D80005E616E600100240FFFFFFFE8C80C11FE6
:1012E800FCFFFEEF382370B51E4CA2681A4205D1E8
:1012F80023681D489B045B0FD84070BDA2681A4044
:10130800082A2AD0A2681A40102A1AD1E368E1688C
:10131800DB434906490F7F2501319B070CD1E36860
:1013280012481B0A1D40FEF7E7FEE1686843490FB3
:101338000131FEF7E1FEE0E7E3680B481B0A1D40B8
:10134800F1E7A2681A40202A09D0A26800201340B9
:10135800182BD2D1FA20C001CFE70448CDE780206E
:101368000002CAE7001002400024F40000127A00CC
:10137800F7B504000D00002801D10120FEBD0727A4
:101388004A4E33683B408B422AD321688B073BD4B3
:10139800CB0748D4072733683B40AB420AD93368A8
:1013A800BB432B433360FFF747FC019033683B4056
:1013B800AB426BD123683E4D5B076FD4FFF792FFBA
:1013C800AB683C4A1B051B0F9B009B581F22134010
:1013D800D840394B1860394B1868FFF7E5FBCDE763
:1013E8003368BB430B433360FFF726FC0190336837
:1013F8003B40AB42C9D0FFF71FFC019BC01A304BE2
:101408009842F4D90320B9E7294A4B0704D5E023C9
:101418009068DB010343936093682A480340A068FF
:1014280003439360B4E76268214F012A19D13B68EE
:101438009B03A2D50721BB688B431343BB60FFF70F
:10144800FBFB01903823BA681A406368DB009A42B4
:10145800A0D0FFF7F1FB019BC01A194B9842F1D9B4
:10146800D0E7022A03D13B689B01E3D485E7002A31
:1014780003D13B685B05DDD47FE70223032A03D150
:10148800396E1942D6D178E7F96DFAE7FFF7D4FB40
:10149800019BC01A0A4B984288D9B3E7AB680A4A3D
:1014A8001340E2681343AB6088E7C046002002405F
:1014B80000100240CC1800087C00002084000020A6
:1014C80088130000FFF0FFFFFF8FFFFF02000300FB
:1014D80001203D321178814218D1022111701B6818
:1014E800DA680243DA600C4A934202D00B4A93420C
:1014F8000DD19A680A4900200A40062A06D0073901
:101508008A4203D0012219680A431A6070471A6890
:10151800104318600020F9E7002C01400004004047
:101528000700010070477047704770477047000018
:101538000222036810B51969040011420ED0D96857
:1015480011420BD0053A1A61043202779B699B0756
:1015580000D186E0FFF7E8FF002323770422236801
:101568001969114211D0D96811420ED0093A1A618D
:10157800073222779A69C0239B0020001A4200D1C3
:1015880075E0FFF7D1FF0023237708222368196944
:1015980011420ED0D96811420BD0113A1A610D329E
:1015A8002277DB6920009B0767D0FFF7BDFF002388
:1015B8002377102223681969114210D0D968114283
:1015C8000DD0213A1A6119322277DA69C0239B00BB
:1015D80020001A4257D0FFF7A7FF002323770122E4
:1015E80023681969114207D0D968114204D0033A17
:1015F80020001A61FFF796FF8022236819691142BB
:1016080008D0D968114205D0023AFF3A20001A6181
:1016180000F0ADF823681A69D20507D5DA68120612
:1016280004D51C4A20001A6100F0A2F84022236861
:101638001969114207D0D968114204D0813A2000B3
:101648001A61FFF773FF202223681969114207D036
:10165800D968114204D0413A20001A6100F086F896
:1016680010BDFFF760FF2000FFF75FFF74E7FFF78B
:101678005AFF2000FFF759FF85E7FFF754FF2000C6
:10168800FFF753FF93E7FFF74EFF2000FFF74DFFEB
:10169800A3E7C046FFFEFFFF194A10B50368904252
:1016A80002D0184CA04208D17024A3434C682343AD
:1016B80090420BD0134CA04208D0134CA04205D046
:1016C800124CA04202D0124CA04203D1114C23402C
:1016D800CC6823438024A3434C69234303608B686D
:1016E800C3620B688362904205D0084B984202D0CF
:1016F800074B984201D10B6903630123436110BD75
:10170800002C01400004004000200040004401403B
:1017180000480140FFFCFFFF70B504000120002CC9
:1017280023D025003D352B78DAB2002B05D12300D4
:101738003C3320001A70FFF7F1F902232B70206860
:10174800211DFFF7A9FF2200012300204832137052
:1017580047340A3A137053709370D37013715371EE
:101768009371D371137223702B7070BD70477047DB
:101778007047000070B500260C4D0D4C641BA4107A
:10178800A64209D1002600F021F80A4D0A4C641B34
:10179800A410A64205D170BDB300EB589847013696
:1017A800EEE7B300EB5898470136F2E70C1900084A
:1017B8000C1900080C1900081019000803008218F9
:1017C800934200D1704719700133F9E7F8B5C04664
:1017D800F8BC08BC9E467047F8B5C046F8BC08BCC3
:0417E8009E46704762
:1017EC00000000500100000000000050020000004A
:1017FC000000005004000000000000500800000031
:10180C0000000050100000000000005020000000FC
:10181C00000000504000000000000050800000005C
:10182C000004005001000000000400500200000001
:10183C0000040050040000000004005008000000E8
:10184C0000000050000100000000005000020000E9
:10185C0000000050000400000000005000080000D0
:10186C0000000050001000000004005010000000A8
:10187C000004005020000000000000500080000018
:10188C0000040050008000000004005080000000A4
:10189C000004005000010000000400500002000091
:1018AC000004005000040000000400500008000078
:1018BC000004005000100000000400500020000044
:1018CC00000000000000000000000000000000000C
:1018DC0000000000000000000000000000000000FC
:1018EC0001000000020000000300000004000000E2
:1018FC0006000000070000000800000009000000BE
:04190C00E1000008EE
:04191000B900000812
:1019140000040050400000000400000054010020B6
:101924005C010020640100206C010020740100208F
:101934007C010020840100207E306D79335B5F7070
:101944007F73771F4E3D4F47010000001C010020AC
:101954000100000000000000000000000C01002055
:101964000100000000000000000000004C01002005
:1019740001000000000000000000000044010020FD
:101984000100000000000000000000000024F4003A
:08199400010000000400000046
:0400000508000B5D87
:00000001FF
