:020000040800F2
:1000000000200020D10C0008410C0008430C00081F
:1000100000000000000000000000000000000000E0
:10002000000000000000000000000000450C000877
:100030000000000000000000470C0008490C000808
:10004000210D000800000000210D0008210D00080E
:10005000210D0008210D0008210D0008210D0008C8
:1000600000000000210D0008210D0008210D0008EE
:10007000210D0008210D0008210D000800000000DE
:10008000210D00080000000000000000510C0008D5
:1000900000000000210D0008210D0008210D0008BE
:1000A000210D0008210D0008210D0008210D000878
:0800B000210D00080000000012
:1000B80010B5064C2378002B07D1054B002B02D036
:1000C800044800E000BF0123237010BD8800002011
:1000D8000000000048190008044B10B5002B03D09D
:1000E8000349044800E000BF10BDC04600000000FE
:1000F8008C00002048190008002243088B4274D362
:1001080003098B425FD3030A8B4244D3030B8B4210
:1001180028D3030C8B420DD3FF22090212BA030C19
:100128008B4202D31212090265D0030B8B4219D3FA
:1001380000E0090AC30B8B4201D3CB03C01A52411A
:10014800830B8B4201D38B03C01A5241430B8B4262
:1001580001D34B03C01A5241030B8B4201D30B034B
:10016800C01A5241C30A8B4201D3CB02C01A524172
:10017800830A8B4201D38B02C01A5241430A8B4235
:1001880001D34B02C01A5241030A8B4201D30B021E
:10019800C01A5241CDD2C3098B4201D3CB01C01A38
:1001A800524183098B4201D38B01C01A5241430942
:1001B8008B4201D34B01C01A524103098B4201D330
:1001C8000B01C01A5241C3088B4201D3CB00C01A9D
:1001D800524183088B4201D38B00C01A5241430815
:1001E8008B4201D34B00C01A5241411A00D201463A
:1001F800524110467047FFE701B5002000F006F8AD
:1002080002BDC0460029F7D076E770477047C04660
:100218000120094B82B0596B0143596302215A6B83
:1002280002400092009A5A6B0A435A635B6B0B4078
:100238000193019B02B07047001002407FB5102265
:10024800002102A801F074FB044B01A99A881868E0
:10025800019200F001FE07B000BDC046000000207A
:1002680010B5044B9988186800F0A4FE024B18706A
:1002780010BDC046000000208C010020A022030011
:10028800D2050020934210D0084A013093420CD086
:10029800074A0130934208D0064A0130934204D0FD
:1002A800054A9B185A425341980070470004005071
:1002B80000080050000C005000ECFFAF00280ED0E2
:1002C80001280FD002280FD003280FD00438431E6E
:1002D8009841074B40421840064BC0187047A02071
:1002E800C005FBE70448F9E70448F7E70448F5E7E1
:1002F80000ECFFFF001400500004005000080050FC
:10030800000C0050F0B50F00040095B005AD1422A4
:10031800002128000AAE01F00BFBFF001422002187
:10032800300001F005FBE3190393039B9C422ED197
:100338000024E3B20193A300F758002F0DD0002149
:100348000C2211A801F0F4FA012301980F971093D9
:10035800FFF7B4FF0FA900F07FFD0134052CE8D1A9
:100368000024A300EE58E7B2002E0BD00021102283
:1003780010A801F0DDFA38000F96FFF79FFF0FA9CC
:1003880000F06AFD0134052CEBD115B0F0BD2368EF
:100398000293A38802980193FFF770FFA37987005F
:1003A800002B05D1EA59019B1343EB510834BCE7F4
:1003B80000220199029800F003FEF259019B1343B1
:1003C800F351F3E7F0B58C4F8C4B3A0003CB03C2E3
:1003D8008B4AB3B0944603CB03C28A4A03CB03C209
:1003E800894A03CB03C2894A03CB03C2884A03CB99
:1003F80003C2884A03CB03C2874A03CB03C2874A96
:1004080003CB03C2864A03CB03C2864A03CB03C28B
:10041800854A03CB03C2854A03CB03C2844A03CB74
:1004280003C2844A03CB03C2834A03CB03C2834B70
:10043800834A180012C812C2824A12C812C2824ADB
:1004480012C812C2814A12C812C2814A12C812C204
:10045800804A1278002A5DD17F4B804D06C806C3BA
:100468007F4B804C06C806C37F4B06C806C32B00CB
:1004780006C806C3230006C806C37C490B0044C847
:1004880044C37B4B44C844C37A4E0CC80CC6684668
:1004980006000CCF0CC667460CCF0CC6594F0CCFC4
:1004A8000CC6594F0CCF0CC6584F0CCF0CC6584F22
:1004B8000CCF0CC6574F0CCF0CC6574F0CCF0CC6E1
:1004C800564F0CCF0CC6564F0CCF0CC6554F0CCF01
:1004D8000CC6554F0CCF0CC65F4F0CCF0CC6604FE7
:1004E8000CCF0CC6604F0CCF0CC60CCD0CC635001B
:1004F8000CCC0CC52C000CC90CC421005C4A18CAD1
:1005080018C10A005B4B12CB12C21421FFF7FAFE86
:1005180033B0F0BD1A005049683211CA11C11A002F
:100528004F49703211CA11C14C4D4F4A783303CB31
:1005380003C22B004B4C504806C806C3230006C80C
:1005480006C34A490B0044C844C3494B44C844C382
:10055800484E0CC80CC6684606000CCF0CC6674649
:100568000CCF0CC6274F0CCF0CC6274F0CCF0CC690
:10057800264F0CCF0CC6264F0CCF0CC6254F0CCFE0
:100588000CC6254F0CCF0CC6334F0CCF0CC6344FBE
:100598000CCF0CC6344F0CCF0CC60CCD0CC6350096
:1005A8000CCC0CC52C000CC90CC42100304A18CA4C
:1005B80018C10A002F4B12CB12C213001B4A12CAD1
:1005C80012C31B4A12CA12C31A4A12CA12C31A4ABF
:1005D80012CA12C31A4A12CA12C31A4A12CA12C338
:1005E800194A12CA12C3194A12CA12C3184A12CA9D
:1005F80012C319218AE7C046AC0000206019000820
:10060800540100205C010020640100206C010020DE
:10061800740100207C010020840100204C0100208E
:10062800440100201C0100200C010020A40000202F
:10063800B4000020BC000020C4000020E01900081D
:10064800CC000020D4000020DC000020E4000020C2
:10065800140100208C010020240100203C0100200E
:100668002C010020EC00002034010020F4000020C0
:10067800FC00002004010020601A000810B5FFF7F4
:10068800C7FDFFF7DBFDFFF7EBFDFFF79BFE10BD96
:1006980010B5044B9988186800F08CFC024B187050
:1006A80010BDC046A40000208D010020F7B5664D9E
:1006B800664E2B7830681A00009353425341DBB2E0
:1006C80001931A00B18800F07BFC614C236800227A
:1006D8009988186800F074FC5E4B1B78012B0ED1CA
:1006E800009B002B0BD15C4FB988386800F062FC86
:1006F800002804D0B988009A386800F061FC574B8C
:100708000434A342E2D12A78B188306800F058FC5A
:10071800504B1B78002B05D0012B1DD1504B1B785B
:10072800012B19D12B78002B14D14E4B00244027D4
:100738001E78474BA200D3584B4A9988925D186897
:10074800A24001343A4000F03BFC072CF1D1019B58
:100758002B70F7BD454BE9E72A7800244026012A8B
:1007680060D13D4B9988186800F02AFC404B1C6802
:100778009E88404B9988186800F01CFC31000200E4
:10078800200000F01DFC3C4B1C689E883B4B998860
:10079800186800F00FFC31000200200000F010FC87
:1007A800374B1C689E88374B9988186800F002FC04
:1007B80031000200200000F003FC334B1C689E88C7
:1007C800324B9988186800F0F5FB310002002000D0
:1007D80000F0F6FB2E4B1C689E882E4B99881868F3
:1007E80000F0E8FB31000200200000F0E9FB2A4B92
:1007F8001C689E88294B9988186800F0DBFB31003B
:100808000200200000F0DCFB254B1C689E88254B6D
:100818009988186800F0CEFB31000200200000F033
:10082800CFFB94E70A4AA300D3580E4A0E49127820
:1008380018688A5C9988A2400134324000F0C0FBF5
:10084800072CEFD183E7C04638000020AC00002019
:100858000C0000208C01002014010020280000203A
:100868008D0100208F010020280000208E0100202B
:1008780054010020B40000205C010020BC000020CE
:1008880064010020C40000206C010020CC0000207E
:1008980074010020D40000207C010020DC0000202E
:1008A80084010020E400002010B503680400998842
:1008B800186800F07FFB002811D12379002B08D19C
:1008C80000F074FAA368C01A8A235B0098420AD21F
:1008D80010BD01232071237300F068FAA06023790A
:1008E800002BF5D1ECE701232371F1E7224B0268D5
:1008F80019688A420BD182889B889A4207D11F4A7D
:10090800002113780F2B01D00133D9B211701C4B81
:10091800026819688A420BD182889B889A4207D15B
:10092800164A0F211378002B01D0013BD9B2117060
:10093800144B026819688A420BD182889B889A42B4
:1009480007D1114A002113780F2B01D00133D9B2F6
:1009580011700E4B026819688A420BD182889B88F5
:100968009A4207D1084A0F211378002B01D0013B86
:10097800D9B211707047C0464C0100208F01002089
:10098800440100201C0100208E0100200C010020E1
:1009980070B501242200244D2B789A43234B998863
:1009A800186800F00DFB2B782200E3409A43204B97
:1009B8009988186800F004FB22002B789B089A435A
:1009C8001C4B9988186800F0FBFA22002B78DB088A
:1009D8009A43194B9988186800F0F2FA2200174DCB
:1009E8002B789A43164B9988186800F0E9FA2B7807
:1009F8002200E3409A43134B9988186800F0E0FA04
:100A080022002B789B089A430F4B9988186800F0AE
:100A1800D7FA22002B78DB089A430C4B9988186880
:100A280000F0CEFA70BDC0468F01002024010020DE
:100A38002C010020340100203C0100208E01002000
:100A4800EC000020F4000020FC000020040100203D
:100A5800F8B50024124D2B689C420AD300240127C4
:100A680023002A6894420CD3002B01D0FFF790FF93
:100A7800F8BD0C482301C0180134FFF715FFE4B294
:100A8800E8E7084A21015618307B002805D0885825
:100A9800FFF72CFF002333733B000134E4B2E0E797
:100AA800080000203C000020920002430F20DB00D9
:100AB8001A4349000A4390437047000070B51F4B22
:100AC8009988186800F076FA1D4B04009988186810
:100AD80000F070FA1B4B05009988186800F06AFA54
:100AE800194B06009988186800F064FA3200030070
:100AF80029002000FFF7D8FF144B1870144B998871
:100B0800186800F057FA134B04009988186800F029
:100B180051FA114B05009988186800F04BFA0F4BF1
:100B280006009988186800F045FA32000300290089
:100B38002000FFF7B9FF0A4B187070BD2401002090
:100B48002C010020340100203C0100208F010020EE
:100B5800EC000020F4000020FC000020040100202C
:100B68008E01002000B593B03422002105A800F0C2
:100B7800DFFE0021102201A800F0DAFE80208000AC
:100B880000F024FA02230593FE3340220893002341
:100B980005A809930A920C9300F044FA011E01D0AB
:100BA80072B6FEE7072302900390049001A8019310
:100BB80000F098FC002801D072B6FEE713B000BD23
:100BC80010B500F0D3F8FFF7CDFF00F049F8FFF7B4
:100BD80055FD0A4800F034FD094C2378002B01D15B
:100BE800FFF7D6FE2378002B02D1FFF731FFF9E794
:100BF800FFF74EFDFFF762FFF4E7C04690010020C3
:100C08008C01002072B6FEE701200A4B82B0196CF5
:100C18000143196480211A6C490502400092009A28
:100C2800DA6B0A43DA63DB6B0B400193019B02B07A
:100C38007047C04600100240FEE7FEE77047704765
:100C480010B500F0A7F810BD10B5FFF72FFD02484A
:100C580000F028FD10BDC04690010020704700003C
:100C68000848094B10B503600023084A43608360B5
:100C7800C2600361836100F009FE002801D0FFF71C
:100C8800C1FF10BD9001002000200040FFFF0000C0
:100C980007B50B4B02689A4211D18020094A00021D
:100CA800116C01431164136C00220340019313205B
:100CB8001100019B00F080F8132000F0A7F807BD91
:100CC80000200040001002400D488546FFF7C6FF8F
:100CD8000C480D490D4A002302E0D458C45004338F
:100CE800C4188C42F9D30A4A0A4C002301E0136065
:100CF8000432A242FBD300F0F7FDFFF761FFFEE7E5
:100D0800002000200000002088000020D01A0008E1
:100D180088000020E0010020FEE7000070B5104BBD
:100D280005001978002901D1012070BDFA20800042
:100D3800FFF7E2F90B4B01001868FFF7DDF900F047
:100D480071F8041EF0D1032DEED80200012029000D
:100D5800404200F031F8044B20001D60E5E7C04632
:100D6800800000207C000020840000208023084AA6
:100D78005B00116810B50B4303201360FFF7CEFF2B
:100D8800041E03D1FFF740FF200010BD0124FBE73C
:100D980000200240034A044B11681B785B1813605B
:100DA8007047C046DC01002080000020014B186815
:100DB8007047C046DC01002030B5FF2503242A0017
:100DC8000440E400A24089012940D243A140C3B2B3
:100DD80000280ADBC0240B4B80088000C018A40040
:100DE80003591A401143015130BD0F200340083BFD
:100DF80005489B089B001B18D86902401143D9611C
:100E0800F2E7C04600E100E000ED00E0002805DB65
:100E18001F2318401E3B8340014A13607047C04699
:100E280000E100E08022431E5204012093420DD2CB
:100E3800C021074A07485360036A09061B021B0AB8
:100E48000B43036200200723906013607047C0467D
:100E580010E000E000ED00E00023F0B585B00A687E
:100E68001400DC4001D105B0F0BD012514009D40FF
:100E78002C4001942A4200D18EE04A685E009446D4
:100E88000322644622400324B440E4430294541EDF
:100E9800012C2AD88768029C2740CC68B4403C4380
:100EA800846044680127AC432500644624093C401B
:100EB8009C402C434460C568029C25408C68B44023
:100EC8002C43C460022A12D1DC080725A4000419A7
:100ED800276A03940F241D40AD00AC40A7430C695A
:100EE800AC402743039C276201E0032AE3D104684E
:100EF800029DB24025402C0014430460C024624681
:100F0800A402224248D0254A03259C08A400A4181C
:100F18000F221D40ED00AA40A027266EFF0596432C
:100F28000022B8420CD01E4F0132B84208D01D4FE3
:100F38000132B84204D01C4F0132B84200D002320C
:100F4800AA40674632432266144C019A2668019DDE
:100F5800D2433543FF0201D435001540674625606A
:100F68006668019D3543BF0201D4350015406746C8
:100F780065600E4C019DE66F3543BF0301D4350013
:100F880015406746E5670A4C019EE56F2E43FF034F
:100F980001D415402E00E667013360E700180240CF
:100FA8000004005000080050000C005008180240CF
:100FB8000418024000690840431E9841C0B27047B7
:100FC800002A01D0816170478162FCE710B5114C9D
:100FD8001149236802000B4003432360802300204B
:100FE8009B009A420ED10D4B0D49186806235843B1
:100FF800FFF782F88022431CD20061690800104084
:10100800114200D110BD002B01D0013BF5E70320B0
:10101800F8E7C04600700040FFF9FFFF7C000020A1
:1010280040420F00F0B5040085B0002823D00368C3
:10103800DB0710D423689B075ED423681B0700D501
:10104800C3E023685B0700D5F4E0E369002B00D018
:101058007AE1002029E03822AF4DAB681340EA68F6
:10106800102B0AD1D243930709D12B689B03E1D5F2
:101078006368002BDED1012017E0082BF5D0802211
:1010880063685202934212D12A6813432B60FFF718
:101098008DFE80270600BF022B683B42CAD1FFF7AE
:1010A80085FE801B6428F7D9032005B0F0BDA02178
:1010B800C9028B4208D180232968DB020B432B60CD
:1010C8002B681A432A60E2E72A6894490A402A6092
:1010D8002A6893490A402A60002BD8D1FFF766FE98
:1010E80080270600BF022B683B42A3D0FFF75EFEB5
:1010F800801B6428F7D9D7E73823874DAA6813409F
:10110800EA68102B28D103210A40022A26D12A682E
:10111800520502D5E268002AADD069686269814843
:10112800120201400A436A60002B0DD12B687E4AE7
:101138001340226913432B602B687C4A9B045B0F86
:10114800DA4013007A4A13607A4B1868FFF7E6FD15
:10115800002800D171E78EE7002BD8D0E368002B78
:1011680020D02B68704A802713402269FF00134360
:101178002B6080232A685B0013432B60FFF716FE61
:1011880006002B683B4207D06A68636965491B0201
:101198000A4013436B6050E7FFF708FE801B0228E4
:1011A800EFD981E72B68644A802713402B60FFF74B
:1011B800FDFD0600FF002B683B4200D13DE7FFF72D
:1011C800F5FD801B0228F6D96EE73822524DAB6830
:1011D8001340182B08D12B6E9B0700D431E7A36965
:1011E800002B00D02DE746E7A2690123002A10D082
:1011F8002A6E022713432B66FFF7D8FD06002B6ED5
:101208003B4200D01DE7FFF7D1FD801B0228F6D92D
:101218004AE72A6E02279A432A66FFF7C7FD0600A7
:101228002B6E3B4200D10CE7FFF7C0FD801B022864
:10123800F6D939E73822384DAB681340202B08D14E
:10124800EB6D9B0700D400E7A368002B00D0FCE6F9
:1012580011E780220021EB6B52050091134208D15F
:10126800EB6B1343EB63EB6B13400393039B01237B
:1012780000938027314E7F0033683B4215D0A36826
:10128800012B22D1EA6D1343EB65FFF78FFD02278F
:101298000600EB6D3B4238D0009B012B00D0D4E612
:1012A800EB6B274A1340EB63CFE633683B4333606D
:1012B800FFF77CFD019033683B42E0D1FFF776FDF4
:1012C800019BC01A0228F6D9EEE6EA6D052B05D176
:1012D800013B1343EB65EA6D0123D4E701218A43FF
:1012E800EA65EA6D03318A43EA65002BCDD1FFF741
:1012F8005DFD02270600EB6D3B42CDD0FFF756FDA2
:10130800104B801B9842F6D9CEE6FFF74FFD0D4BE8
:10131800801B9842BDD9C7E600100240FFFFFEFFC0
:10132800FFFFFBFFFF80FFFFFFC7FFFF0024F40064
:101338007C00002084000020FFFEFFFF00700040BA
:10134800FFFFFFEF8813000038213F4DAA680A40CD
:10135800102A53D03D4A022B38D12B6880271340DE
:101368002B60FFF723FD0600BF042B683B4227D103
:10137800616A236AEA680B43354980260A401343A9
:10138800E26AB6041343226B1343A26A12021343A0
:10139800EB6080232A685B0413432B608023EA6890
:1013A8005B051343EB60FFF701FD04002B68334234
:1013B80000D04EE6FFF7FAFC001B0228F6D973E6C8
:1013C800FFF7F4FC801B0228CFD96DE62B68802636
:1013D80013402B60FFF7EAFC0400B6042B681800E2
:1013E8003040334204D1EB681A4A1340EB605CE6A4
:1013F800FFF7DCFC001B0228F0D955E6012B00D1D1
:1014080039E60322EB68216A1A408A4200D032E6A4
:101418007022616A1A408A4200D02CE6FE21A26A34
:10142800C90119401202914200D024E6F822E16A6B
:1014380092031A408A4200D01DE6226B5B0F5B07BD
:10144800934200D105E616E600100240FFFFFFFEBA
:101458008C80C11FFCFFFEEF382370B51E4CA268BC
:101468001A4205D123681D489B045B0FD84070BD04
:10147800A2681A40082A2AD0A2681A40102A1AD14B
:10148800E368E168DB434906490F7F2501319B0783
:101498000CD1E36812481B0A1D40FEF72DFEE168D7
:1014A8006843490F0131FEF727FEE0E7E3680B4880
:1014B8001B0A1D40F1E7A2681A40202A09D0A26839
:1014C80000201340182BD2D1FA20C001CFE70448DE
:1014D800CDE780200002CAE7001002400024F40093
:1014E80000127A00F7B504000D00002801D1012090
:1014F800FEBD07274A4E33683B408B422AD32168FA
:101508008B073BD4CB0748D4072733683B40AB4213
:101518000AD93368BB432B433360FFF747FC01907C
:1015280033683B40AB426BD123683E4D5B076FD4B9
:10153800FFF792FFAB683C4A1B051B0F9B009B58AB
:101548001F221340D840394B1860394B1868FFF7F1
:10155800E5FBCDE73368BB430B433360FFF726FC5D
:10156800019033683B40AB42C9D0FFF71FFC019B99
:10157800C01A304B9842F4D90320B9E7294A4B07DF
:1015880004D5E0239068DB010343936093682A48FD
:101598000340A06803439360B4E76268214F012ABF
:1015A80019D13B689B03A2D50721BB688B43134322
:1015B800BB60FFF7FBFB01903823BA681A406368E9
:1015C800DB009A42A0D0FFF7F1FB019BC01A194B30
:1015D8009842F1D9D0E7022A03D13B689B01E3D4B2
:1015E80085E7002A03D13B685B05DDD47FE702234A
:1015F800032A03D1396E1942D6D178E7F96DFAE793
:10160800FFF7D4FB019BC01A0A4B984288D9B3E76D
:10161800AB680A4A1340E2681343AB6088E7C046E8
:101628000020024000100240881A00087C000020B8
:101638008400002088130000FFF0FFFFFF8FFFFFEA
:101648000200030001203D321178814218D10221A5
:1016580011701B68DA680243DA600C4A934202D0C0
:101668000B4A93420DD19A680A4900200A40062A7B
:1016780006D007398A4203D0012219680A431A6042
:1016880070471A68104318600020F9E7002C0140E1
:10169800000400400700010070477047704770471A
:1016A800704700000222036810B51969040011424E
:1016B8000ED0D96811420BD0053A1A61043202776C
:1016C8009B699B0700D186E0FFF7E8FF002323779B
:1016D800042223681969114211D0D96811420ED029
:1016E800093A1A61073222779A69C0239B002000C1
:1016F8001A4200D175E0FFF7D1FF002323770822B3
:101708002368196911420ED0D96811420BD0113AD9
:101718001A610D322277DB6920009B0767D0FFF73B
:10172800BDFF00232377102223681969114210D0C6
:10173800D96811420DD0213A1A6119322277DA6933
:10174800C0239B0020001A4257D0FFF7A7FF0023B1
:101758002377012223681969114207D0D9681142F9
:1017680004D0033A20001A61FFF796FF802223680D
:101778001969114208D0D968114205D0023AFF3AD6
:1017880020001A6100F0ADF823681A69D20507D560
:10179800DA68120604D51C4A20001A6100F0A2F883
:1017A800402223681969114207D0D968114204D030
:1017B800813A20001A61FFF773FF20222368196914
:1017C800114207D0D968114204D0413A20001A6169
:1017D80000F086F810BDFFF760FF2000FFF75FFFFD
:1017E80074E7FFF75AFF2000FFF759FF85E7FFF777
:1017F80054FF2000FFF753FF93E7FFF74EFF200049
:10180800FFF74DFFA3E7C046FFFEFFFF194A10B5DB
:101818000368904202D0184CA04208D17024A34318
:101828004C68234390420BD0134CA04208D0134C71
:10183800A04205D0124CA04202D0124CA04203D1C3
:10184800114C2340CC6823438024A3434C69234391
:1018580003608B68C3620B688362904205D0084BB3
:10186800984202D0074B984201D10B6903630123C8
:10187800436110BD002C01400004004000200040DE
:101888000044014000480140FFFCFFFF70B5040020
:101898000120002C23D025003D352B78DAB2002B0F
:1018A80005D123003C3320001A70FFF7F1F9022319
:1018B8002B702068211DFFF7A9FF220001230020BB
:1018C8004832137047340A3A137053709370D370C8
:1018D800137153719371D371137223702B7070BD90
:1018E800704770477047000070B500260C4D0D4CCE
:1018F800641BA410A64209D1002600F021F80A4D65
:101908000A4C641BA410A64205D170BDB300EB5865
:1019180098470136EEE7B300EB5898470136F2E7EF
:10192800C81A0008C81A0008C81A0008CC1A000803
:1019380003008218934200D1704719700133F9E708
:10194800F8B5C046F8BC08BC9E467047F8B5C04616
:08195800F8BC08BC9E46704774
:1019600000000050010001000000005002000100D2
:1019700000000050040001000000005008000100B9
:101980000000005010000100000000502000010085
:1019900000000050400001000000005080000100E5
:1019A000000400500100000000040050020000008C
:1019B0000004005004000000000400500800000073
:1019C000000400500080000000040050800000006F
:1019D000000400500001000000040050000200005C
:1019E0000004005000040000000400500008000043
:1019F000000400500010000000040050002000000F
:101A000000040050010001000000005000800100AF
:101A100000000050000801000004005020000100F8
:101A200000000050001001000004005010000100F0
:101A300000000050000201000000005000040100FE
:101A400000000050000101000000005000010000F3
:101A500000000050000200000000005000040000E0
:101A600000000050000800000000005000100000BE
:101A7000000400501000000000040050200000008E
:101A80000000005000800000000000000000000086
:101A90000000000000000000000000000000000046
:101AA0000000000000000000010000000200000033
:101AB0000300000004000000060000000700000012
:081AC00008000000090000000D
:041AC800E100000831
:041ACC00B900000855
:101AD00000040050400000000400000054010020F9
:101AE0005C010020640100206C01002074010020D2
:101AF0007C010020840100207E306D79335B5F70B3
:101B00007F73771F4E3D4F47010000001C010020EE
:101B10000100000000000000000000000C01002097
:101B20000100000000000000000000004C01002047
:101B3000010000000000000000000000440100203F
:101B40000100000000000000000000000024F4007C
:081B5000010000000400000088
:0400000508000CD112
:00000001FF
